:1000000045C0000060C000005EC000005CC0000091
:100010005AC0000058C0000056C0000054C0000084
:1000200052C0000050C000004EC000004CC0000094
:100030004AC0000048C0000046C0000044C00000A4
:1000400042C0000040C000003EC000003CC00000B4
:100050003AC0000038C0000036C0000034C00000C4
:1000600032C0000030C000002EC000002CC00000D4
:100070002AC0000028C0000026C0000024C00000E4
:1000800022C0000020C000001EC0000011241FBEBE
:10009000CFEFD0E1DEBFCDBF11E0A0E0B1E0E0EEF8
:1000A000F3E000E00BBF02C007900D92AC30B10747
:1000B000D9F721E0ACE0B1E001C01D92AF30B2074A
:1000C000E1F723D18BC19CCF807808958074089587
:1000D00086958695869583700895877020E8829F1F
:1000E000C001112408958F7790E008958FEC87BBAD
:1000F00083E58DB980E888BB08958FB9779BFECFE3
:1001000008958BE08FBD89E08EBD8CE291E09093E5
:100110007900809378000895EF92FF920F931F93D8
:10012000CF93DF9398E0C0E0A82FB0E00F2EF7E068
:10013000EF2EF12CF02D01E010E09150E92FF0E0CE
:100140009D01092E02C0359527950A94E2F720FFFC
:100150000AC097012E1B3F0BF80102C0EE0FFF1FD4
:100160002A95E2F7CE2B9111E8CF1C2F107FF0E1FA
:10017000CF9FE0011124662311F08AEF01C088EFC0
:1001800041118460BADF812FB8DF8C2FB6DFDF9199
:10019000CF911F910F91FF90EF90089540E060E0A4
:1001A00081E0BADF8CEC9CE10197F1F700C0000020
:1001B0000895623029F440E060E0806AADCF089590
:1001C000633029F440E060E0806CA6CF089564308D
:1001D00029F440E060E0806E9FCF089540E060E049
:1001E00080E89ACF08952FEF8FE794E02150804068
:1001F0009040E1F700C0000079DF83DF2FEF8FE14F
:1002000091E0215080409040E1F700C0000040E0C4
:1002100060E084E381DF24EC2A95F1F700C040E040
:1002200060E089E079DF84EC8A95F1F700C040E076
:1002300060E080E371DF94EC9A95F1F700C040E054
:1002400060E08CE069DF24EC2A95F1F700C0A6DFBE
:1002500040E060E086E060DF84EC8A95F1F700C062
:100260000895CF93DF93EC018881882339F021969C
:1002700040E061E051DF89918111FACFDF91CF91A8
:1002800008950F931F93CF93DF9300D000D000D039
:10029000CDB7DEB78C0182DF61E080E08ADF80E0ED
:1002A00091E0DFDF4AE0BE016F5F7F4FC80163D09E
:1002B000CE010196D6DF26960FB6F894DEBF0FBEAC
:1002C000CDBFDF91CF911F910F9108959C0197B3FE
:1002D000906697BB9FB59B689FBD89E08EBD3BBD77
:1002E0002ABD089580910E01813019F0823039F0D5
:1002F000089580910C0190910D01C3CF08958091D4
:100300000C0190910D01E2CF08956DDF80E895E238
:1003100022D02DD0C82FD8DE882379F08C2FD6DEBE
:100320008823B9F38C2FD4DE80930E018C2FD5DE79
:1003300090930D0180930C01ECCF8C2FD4DE209193
:100340000C0130910D01822B932B90930D01809322
:100350000C01C8DFDECF2AB1286D2AB9E5E9F0E04B
:100360002081266020839093900089B908955F9B37
:10037000FECF8CB10895BB274A3031F4992322F483
:10038000BDE2909581959F4F01C0BB27FB0155278A
:10039000AA27880F991FAA1FA41710F0A41B8395E2
:1003A0005051B9F7A05DAA3308F0A95DA193009759
:1003B00079F7B111B1931192CB0100C0DC01FC01BE
:1003C000672F71917723E1F7329704C07C916D9389
:1003D00070836291AE17BF07C8F30895F894FFCFFA
:0C03E000496E74656E736974793A2000F0
:00000001FF
