:1000000045C0000060C000005EC000005CC0000091
:100010005AC0000058C0000056C0000054C0000084
:1000200052C0000050C000004EC000004CC0000094
:100030004AC0000048C0000046C0000044C00000A4
:1000400042C0000040C000003EC000003CC00000B4
:100050003AC0000038C0000036C0000034C00000C4
:1000600032C0000030C000002EC000002CC00000D4
:100070002AC0000028C0000026C0000024C00000E4
:1000800022C0000020C000001EC0000011241FBEBE
:10009000CFEFD0E1DEBFCDBF11E0A0E0B1E0E4ECF6
:1000A000F6E000E00BBF02C007900D92AA30B10746
:1000B000D9F721E0AAE0B1E001C01D92A731B20753
:1000C000E1F734D0FDC29CCF807808958074089504
:1000D00086958695869583700895877020E8829F1F
:1000E000C001112408958F7790E00895BC0180E04D
:1000F00090E0B7D120E030E04AEF53E440D220E076
:1001000030E040E85AE33BD223E333E948E853E4E4
:1001100012D142E0D2C0089580910D01833029F4BC
:1001200080910A0190910B01E1CF08953DD080E8C4
:1001300095E2F0D010920C0180910C0191E0980FA3
:1001400090930C01811101C0CED0F0D08823A1F38F
:10015000F0D0C82FB9DF882379F08C2FB7DF882340
:1001600059F38C2FB5DF80930D018C2FB6DF909360
:100170000B0180930A01E0CF8C2FB5DF20910A019B
:1001800030910B01822B932B90930B0180930A01EA
:10019000C3DFD2CFEFE0F1E027E131E08FEF8193D1
:1001A000E217F307E1F7089587B3876087BB8FEF06
:1001B00081BB18BA82BB10920E01ECCF08954F920A
:1001C0005F926F927F928F929F92AF92BF92CF92E7
:1001D000DF92EF92FF920F931F93CF932B013C017D
:1001E0004A01D8DFB301A20177203CF44427552708
:1001F000BA014419550966097709CB01BA0128E00B
:100200008216910414F0812C912CC0E00F2EF7E09F
:10021000AF2EB12CF02D0F2EFAE0CF2ED12CE12CE9
:10022000F12CF02D1AC085010C1B1109015F1E4F26
:10023000A701960107D2FB01E050FF4F8081F80132
:100240008083622F732F842F952FCF5F2C2F30E068
:10025000215031092830310554F4161617061806B6
:1002600019060CF32C2F30E082169306E4F6811465
:10027000910439F0E6E1F1E0E819F90980818F771E
:100280008083772054F4C83040F4E7E0F0E0EC1BC2
:10029000F109E15FFE4F8FEB8083CF911F910F91AA
:1002A000FF90EF90DF90CF90BF90AF909F908F9096
:1002B0007F906F905F904F900895CF93DF93D42FEE
:1002C000442349F0C0E020E030E040E251E457D15F
:1002D000CF5FDC13F8CFCD2FD0E092D0AE016FDF2F
:1002E000DF91CF9108958FEF82BB80910E0188BB83
:1002F000E0910E01F0E0E15FFE4F808182BB8091D2
:100300000E018F5F883019F080930E0108951092CE
:100310000E0108952AB1286D2AB9E5E9F0E020819F
:10032000266020839093900089B908958BB18078DE
:1003300008958CB108955058BB27AA270ED0E5C068
:10034000D6D030F0DBD020F031F49F3F11F41EF412
:10035000CBC00EF4E095E7FBC1C0E92FE7D080F3F6
:10036000BA17620773078407950718F071F49EF5B2
:10037000FFC00EF4E0950B2EBA2FA02D0B01B90192
:1003800090010C01CA01A0011124FF27591B99F00B
:10039000593F50F4503E68F11A16F040A22F232F17
:1003A000342F4427585FF3CF469537952795A79567
:1003B000F0405395C9F77EF41F16BA0B620B730B0E
:1003C000840BBAF09150A1F0FF0FBB1F661F771F7F
:1003D000881FC2F70EC0BA0F621F731F841F48F434
:1003E000879577956795B795F7959E3F08F0B3CFBA
:1003F0009395880F08F09927EE0F979587950895A4
:1004000004D06894B111B5C0089598D088F09F5772
:1004100090F0B92F9927B751A0F0D1F0660F771F50
:10042000881F991F1AF0BA95C9F712C0B13081F030
:100430009FD0B1E008959CC0672F782F8827B85FC0
:1004400039F0B93FCCF3869577956795B395D9F791
:100450003EF490958095709561957F4F8F4F9F4F9B
:100460000895E89409C097FB3EF4909580957095A7
:1004700061957F4F8F4F9F4F9923A9F0F92F96E9F0
:10048000BB279395F695879577956795B795F11165
:10049000F8CFFAF4BB0F11F460FF1BC06F5F7F4F02
:1004A0008F4F9F4F16C0882311F096E911C0772314
:1004B00021F09EE8872F762F05C0662371F096E81D
:1004C000862F70E060E02AF09A95660F771F881FEC
:1004D000DAF7880F9695879597F9089597F99F67AA
:1004E00080E870E060E008959FEF80EC08950024BC
:1004F0000A941616170618060906089500240A9489
:1005000012161306140605060895092E0394000C0E
:1005100011F4882352F0BB0F40F4BF2B11F460FF9D
:1005200004C06F5F7F4F8F4F9F4F089557FD9058C6
:10053000440F551F59F05F3F71F04795880F97FBA7
:10054000991F61F09F3F79F0879508951216130661
:100550001406551FF2CF4695F1DF08C01616170690
:100560001806991FF1CF86957105610508940895C5
:10057000E894BB2766277727CB0197F908950BD01E
:10058000C4CFB5DF28F0BADF18F0952309F0A6CF65
:10059000ABCF1124EECFCADFA0F3959FD1F3950F17
:1005A00050E0551F629FF001729FBB27F00DB11DF7
:1005B000639FAA27F00DB11DAA1F649F6627B00D87
:1005C000A11D661F829F2227B00DA11D621F739F70
:1005D000B00DA11D621F839FA00D611D221F749F7E
:1005E0003327A00D611D231F849F600D211D822FC5
:1005F000762F6A2F11249F5750408AF0E1F088230C
:100600004AF0EE0FFF1FBB1F661F771F881F915018
:100610005040A9F79E3F510570F060CFAACF5F3FD1
:10062000ECF3983EDCF3869577956795B795F7954B
:10063000E7959F5FC1F7FE2B880F911D96958795D3
:1006400097F90895052E97FB16F400940FD057FDE7
:1006500005D014D007FC02D046F408C05095409550
:10066000309521953F4F4F4F5F4F0895909580955E
:10067000709561957F4F8F4F9F4F0895A1E21A2E7D
:10068000AA1BBB1BFD010DC0AA1FBB1FEE1FFF1F36
:10069000A217B307E407F50720F0A21BB30BE40B86
:1006A000F50B661F771F881F991F1A9469F76095CD
:1006B0007095809590959B01AC01BD01CF01089587
:0406C000F894FFCFDC
:0A06C400C0F9A4B0999282F880906A
:00000001FF
