:100000000C9446000C9463000C9463000C94630001
:100010000C9463000C9463000C9463000C946300D4
:100020000C9463000C9463000C9463000C946300C4
:100030000C9463000C9463000C941A010C946300FC
:100040000C9463000C9463000C9463000C946300A4
:100050000C9463000C9463000C9463000C94630094
:100060000C9463000C9463000C9463000C94630084
:100070000C9463000C9463000C9431010C946300A5
:100080000C9463000C9463000C94630011241FBE55
:10009000CFEFD0E1DEBFCDBF11E0A0E0B1E0E4EBF7
:1000A000F1E100E00BBF02C007900D92A035B1074F
:1000B000D9F711E0A0E5B1E001C01D92A13AB10766
:1000C000E1F70C947C010C940000982F80919B0028
:1000D00085FFFCCF90939C0080E090E00895109203
:1000E0009B0088E980939A0086E080939D0010929F
:1000F00098008FE28093990087B7846087BF109241
:100100005801109257011DBC1CBC1FBC81E08EBD64
:1001100078948091650088618093650088E1809380
:10012000640008951EBC10925801109257011DBC26
:100130001CBC81E08EBD08958091570190915801BB
:10014000AC018CB5282F8DB5382F80915701909137
:1001500058018417950781F7CA01B90108950F93D3
:100160001F93CF938091530190915401019709F00F
:100170005DC080910001853509F458C0109254018A
:1001800010925301809150018093590120910001F8
:1001900020935A01223549F580915B0199E4892722
:1001A00080935B0180915C019EE4892780935C01D0
:1001B00080915D0197E4892780935D0180915E01C4
:1001C0009FE4892780935E0180915F019DE48927E8
:1001D00080935F018091600191E4892780936001A1
:1001E0008091610182278093610109E511E0C8E0F7
:1001F000F80181918F010E946500C150C7FFF8CFBF
:10020000C0E080916101882371F0EC2FFF27EF5946
:10021000FE4F80810E946500CF5FEC2FFF27EF59D2
:10022000FE4F8081F0CF8AE00E946500CF911F9140
:100230000F9108951F920F920FB60F9211248F9372
:100240009F93809157019091580101969093580186
:10025000809357019F918F910F900FBE0F901F9029
:1002600018951F920F920FB60F9211242F933F9360
:100270004F935F936F937F938F939F93AF93BF93AE
:10028000EF93FF932091510130915201F901E75A08
:10029000FE4F80919C008083883579F482E090E065
:1002A000909352018093510180910101909102013C
:1002B000019789F40E94F0010EC0C9010196909344
:1002C000520180935101099731F481E090E09093BD
:1002D000540180935301FF91EF91BF91AF919F9192
:1002E0008F917F916F915F914F913F912F910F90DF
:1002F0000FBE0F901F901895CFEFD0E1DEBFCDBF9E
:1003000085E58093000185E7809350010E946F008E
:100310000E94D8010E94F401FDCF6F927F928F92CC
:100320009F92AF92BF92CF92DF92EF92FF920F9384
:100330001F933B014C0159016A01261737074807F3
:10034000590768F4CA01B90125E630E040E050E001
:100350000E9484087B018C01C401B3010AC025E618
:1003600030E040E050E00E9484087B018C01C6012F
:10037000B50124E630E040E050E00E948408DC0152
:10038000CB01E816F9060A071B0718F081E090E098
:1003900002C080E090E01F910F91FF90EF90DF90FE
:1003A000CF90BF90AF909F908F907F906F90089567
:1003B00017BA8FEF88BB11BA12BA85E58093000196
:1003C0008FE0A3E0B1E0E1E6F1E00D9001928A95C3
:1003D000E1F786E48093000182E380935001089561
:1003E00081E08093560108954F925F926F927F92C1
:1003F0008F929F92AF92BF92CF92DF92EF92FF9235
:100400000F931F93CF93662477244301C0E04C2EB3
:10041000552480910001823571F0809100018D3466
:1004200051F0809165008F7E80936500809165001A
:100430008860809365008C2F99278230910509F49C
:10044000F5C08330910534F4009789F0019709F4E1
:1004500067C036C28330910509F471C1049709F46D
:10046000FDC12EC20E949C003B014C0166C1442488
:100470000E949C005B016C018499F4CFD7FC05C0FD
:10048000C601B5010E94330618C0D601C5018170AE
:100490009070A070B070A60195015695479537955C
:1004A0002795822B932BA42BB52BBC01CD010E9449
:1004B00033069B01AC010E94970520E030E047E83D
:1004C0005BE40E9497057B018C010E949C009B01CC
:1004D000AC0197FD03C00E94330616C0DC01CB01BE
:1004E00081709070A070B07056954795379527959C
:1004F000822B932BA42BB52BBC01CD010E9433067C
:100500009B01AC010E9497059B01AC01C801B7019A
:100510000E94FD0587FD93C1552009F4ADCFD0C1E0
:1005200064015301849930C00E949C003B014C013E
:100530007B018C01EA18FB080C091D09A801970131
:1005400060E070E081EE90E00E948D01882309F068
:10055000F4C0A801970160E070E887EF90E00E9486
:100560008D01982F882309F0E7C0E1E05E2E8FE02F
:10057000A2E1B1E0E1E6F1E00D9001928A95E1F7A8
:1005800086E480930001C92FD7FC05C0C601B501E0
:100590000E94330618C0D601C50181709070A0700A
:1005A000B070A60195015695479537952795822BF2
:1005B000932BA42BB52BBC01CD010E9433069B01CC
:1005C000AC010E94970520E030E047E85BE40E9420
:1005D00097057B018C010E949C009B01AC0197FD5B
:1005E00003C00E94330616C0DC01CB0181709070FD
:1005F000A070B0705695479537952795822B932B11
:10060000A42BB52BBC01CD010E9433069B01AC018C
:100610000E9497059B01AC01C801B7010E94FD052E
:1006200087FD0DC1552009F47DCF4AC164015301F6
:10063000849B30C00E949C003B014C017B018C01DB
:10064000EA18FB080C091D09A801970160E070E099
:1006500081EE90E00E948D01882309F06EC0A80110
:10066000970160E070E887EF90E00E948D01982F7D
:10067000882309F061C001E0502E8FE0A2E1B1E0D3
:10068000E1E6F1E00D9001928A95E1F786E480932E
:100690000001C92FD7FC05C0C601B5010E94330671
:1006A00018C0D601C50181709070A070B070A6010D
:1006B00095015695479537952795822B932BA42B1B
:1006C000B52BBC01CD010E9433069B01AC010E94F9
:1006D000970520E030E047E85BE40E9497057B0146
:1006E0008C010E949C009B01AC0197FD03C00E94FD
:1006F000330616C0DC01CB0181709070A070B07021
:100700005695479537952795822B932BA42BB52B80
:10071000BC01CD010E9433069B01AC010E949705EC
:100720009B01AC01C801B7010E94FD0587FD87C090
:10073000552009F47DCFC4C04394CF5FC1C064018C
:10074000530184992EC00E949C003B014C017B0107
:100750008C01EA18FB080C091D09A801970160E04B
:1007600070E081EE90E00E948D01882331F7A801AE
:10077000970160E070E887EF90E00E948D01982F6C
:100780008823D1F6E1E05E2E8FE0A2E1B1E0E1E660
:10079000F1E00D9001928A95E1F786E480930001E3
:1007A000C92FD7FC05C0C601B5010E94330618C089
:1007B000D601C50181709070A070B070A60195013E
:1007C0005695479537952795822B932BA42BB52BC0
:1007D000BC01CD010E9433069B01AC010E9497052C
:1007E00020E030E047E85BE40E9497057B018C0144
:1007F0000E949C009B01AC0197FD03C00E94330640
:1008000016C0DC01CB0181709070A070B07056955D
:10081000479537952795822B932BA42BB52BBC019D
:10082000CD010E9433069B01AC010E9497059B01FC
:10083000AC01C801B7010E94FD0588235CF48FE07C
:10084000A2E1B1E0E1E6F1E00D9001928A95E1F7D5
:1008500086E433C0552009F474CF32C0A1E6B1E07C
:100860004420B1F08091650088608093650080919C
:10087000650080618093650085E58093000180E1DB
:10088000E1E2F1E001900D928A95E1F78DE415C067
:1008900080916500877F809365008091650080610D
:1008A0008093650085E58093000186E1E1E3F1E056
:1008B00001900D928A95E1F782E580930001C0E0F6
:1008C0000E94AF00A5CDA0E0B0E0E9E6F4E00C9412
:1008D000A3088C017B015A01DC018C91823058F015
:1008E000FB019081923010F4A7011BC1843029F4E0
:1008F000943009F4B6C0A80114C19430A9F3923021
:1009000009F4B9C0823081F3F801C280D380FB01C1
:1009100062817381F8012481358146815781F70115
:100920006480758086809780C601861B970B97FD33
:10093000E8C080970CF45CC06C157D050CF0BDC060
:10094000662477244301F8016181F70181816817EA
:1009500009F4A9C0662309F4A1C0621A730A840AC3
:10096000950AA401930157FDD0C0F5011182B6018B
:1009700019012A0179018A0139014A0108946108A3
:10098000710881089108FFEF6F16FFEF7F06FFEFF8
:100990008F06FFE39F06F0F4A8019701220F331F93
:1009A000441F551F19012A01B601615070406B01A7
:1009B00079018A0139014A010894610871088108A6
:1009C00091088FEF68168FEF78068FEF88068FE318
:1009D000980610F383E0D5018C9357FC74C0F501A1
:1009E000248335834683578362837383A50199C02B
:1009F0006C157D05C4F4C601861B970BBC016150C4
:100A00007040D401C30181709070A070B070969452
:100A1000879477946794682A792A8A2A9B2A611591
:100A2000710569F7B601C616D7060CF08CCFDB014D
:100A3000AC19BD096D010894C108D108DA01C901DA
:100A400081709070A070B070569547953795279536
:100A5000282B392B4A2B5B2BC114D10461F76B0176
:100A600072CFF8019181FB018181981709F443CF7E
:100A700047E451E056C0823009F03DCF88E0DA010A
:100A8000F80101900D928A95E1F7F8018181FB014F
:100A900091818923FA018183A50143C02619370971
:100AA0004809590960CFF5016183B601260D371D4C
:100AB000481D591D19012A018DCF6B0120E030E03E
:100AC00040E050E040CFD201C101B695A79597957F
:100AD000879521E030E040E050E02222332244229A
:100AE0005522282A392A4A2A5B2AF501248235828E
:100AF000468257820894C11CD11CC282D382A501B0
:100B000010C0909581959F4F14CF81E0F5018183AE
:100B1000B60150954095309521953F4F4F4F5F4F0F
:100B200027CFCA01E2E1CDB7DEB70C94BF08A0E23F
:100B3000B0E0EDE9F5E00C94B108DC01CB01898F60
:100B40009A8FAB8FBC8F2D8F3E8F4F8F58A3BE01D6
:100B50006F5F7F4FCE0149960E949D078E01075F10
:100B60001F4FB801CE014D960E949D07AE014F5E0A
:100B70005F4FB801CE0101960E9463040E94970660
:100B8000DC01CB01BC01CD01E4E0A0960C94CD08C2
:100B9000A0E2B0E0EEECF5E00C94B108DC01CB0192
:100BA000898F9A8FAB8FBC8F2D8F3E8F4F8F58A31D
:100BB000BE016F5F7F4FCE0149960E949D078E0157
:100BC000075F1F4FB801CE014D960E949D078A8591
:100BD00091E089278A87AE014F5E5F4FB801CE0151
:100BE00001960E9463040E949706DC01CB01BC01C0
:100BF000CD01E4E0A0960C94CD08A8E1B0E0E3E0DC
:100C0000F6E00C94B108DC01CB01898B9A8BAB8B9D
:100C1000BC8B2D8B3E8B4F8B588FBE016F5F7F4FF0
:100C2000CE0141960E949D078E01075F1F4FB801BC
:100C3000CE0145960E949D078981823018F08985F2
:100C4000823018F421E030E009C0B801CE010196ED
:100C50000E941108282F332727FD3095C901E4E0B1
:100C600068960C94CD08A8E0B0E0E9E3F6E00C94B7
:100C7000AF089B01AC017B018C01EE2417FDE394CE
:100C8000FF2400271127EA8221153105410551056E
:100C900039F482E08983CE0101960E94970643C011
:100CA00083E089836EE170E0CB01EE2031F57901BC
:100CB0008A01A80197012030E0E03E07E0E04E07FE
:100CC000E0E45E0798F479018A01EE0CFF1C001F36
:100CD000111F0197BC01A8019701E0E0EE16E0E0CA
:100CE000FE06E0E00E07E0E41E0768F3ED82FE82F8
:100CF0000F8318876B837C83CECF2030E0E03E07E4
:100D0000E0E04E07E0E85E0741F0EE24FF248701B3
:100D1000E21AF30A040B150BCCCF6B837C8360E0E3
:100D200070E080E09FECE6E028960C94CB08A0E011
:100D3000B0E0EDE9F6E00C94A90888249924540168
:100D4000DC01FC0124813581468157818181C82ED7
:100D5000DD2460E070E08C91823020F46FEF70E071
:100D60004061C2C0843009F46AC0823009F469C0AD
:100D7000211531054105510509F4B6C0FD018281F7
:100D80009381FFEF82389F070CF056C002E81FEFF7
:100D9000081B190B0A3111050CF074C07B0181E0AE
:100DA00090E0A0E0B0E0002E04C0880F991FAA1FB9
:100DB000BB1F0A94D2F70197A109B109822393239B
:100DC000A423B5230097A105B10519F0C1E0EC2ECD
:100DD000F12C04C056954795379527950A95D2F77B
:100DE000C701AA2797FDA095BA2F282B392B4A2B8C
:100DF0005B2BDA01C9018F779070A070B0708034DE
:100E00009105A105B10509F442C0215C3F4F4F4F48
:100E10005F4F79018A01A7E016950795F794E7944B
:100E2000AA95D1F7205030404040504410F061E086
:100E300070E0A801970158C0803891053CF06FEF31
:100E400070E020E030E040E050E04EC0BC0161586E
:100E50007F4FDA01C9018F779070A070B070803435
:100E60009105A105B10539F1215C3F4F4F4F5F4F0F
:100E700057FD33C097E056954795379527959A9536
:100E8000D1F732C020E030E040E050E0B2CF79014D
:100E90008A01B7E016950795F794E794BA95D1F7CC
:100EA000C70181709070892B09F4BCCF205C3F4F43
:100EB0004F4F5F4FAECFDA01C901F7E0B695A79566
:100EC00097958795FA95D1F781709070892B81F26B
:100ED000205C3F4F4F4F5F4FCBCF5695479537958F
:100EE00027956F5F7F4FC6CF822E932E942F9F77CB
:100EF0008A2D8078A82EA92A962F979599279795BD
:100F00008A2D8F77A82EA92A76956795962F9F7799
:100F10008B2D8078B82EB92A9C2D97959927979577
:100F20008B2D8F77B82EB92AD501C401BC01CD0114
:100F3000ECE0CDB7DEB70C94C508CF93DF93FC018E
:100F4000EB01408151812281622F6F7770E0221F77
:100F50002227221F9381892F880F822B282F332746
:100F6000991F9927991F99832115310521F541155D
:100F7000510561057105A9F122E83FEFF901A7E0EC
:100F8000440F551F661F771FAA95D1F783E088830A
:100F900007C0440F551F661F771F21503040F901CD
:100FA000403080E0580780E0680780E4780788F3E5
:100FB000EA83FB8311C02F3F3105B1F02F5730403A
:100FC0002A833B8383E0888387E0440F551F661F95
:100FD000771F8A95D1F770644C835D836E837F831E
:100FE0001DC082E088831AC0411551056105710555
:100FF00019F484E0888312C0DB01CA0124E1B695AC
:10100000A795979587952A95D1F781709070892B30
:1010100019F081E08883E0CF1882DECFDF91CF9195
:1010200008950F931F93CF93DF93FC01DB01808121
:10103000823018F09C91923018F461E070E05EC04C
:101040008430C1F0843001F1943009F447C082301B
:1010500009F44BC0823009F44EC09230A9F04181AE
:10106000ED0189814817B9F0442389F08FEF9FEF94
:10107000BC0144C0943031F7EB018981682F772798
:101080008181681B71093AC08181882379F781E0E9
:1010900090E0BC0133C022813381ED018A819B81C4
:1010A000821793070CF3281739079CF004811581E8
:1010B00026813781FD016481758186819781601762
:1010C00071078207930780F2061717072807390769
:1010D00078F4442359F281E090E0DBCFFD01818177
:1010E000882321F281E090E0D4CF923009F0B2CF92
:1010F00060E070E003C0ED018981F2CFCB01DF91A8
:10110000CF911F910F910895629FD001739FF001BD
:10111000829FE00DF11D649FE00DF11D929FF00D87
:10112000839FF00D749FF00D659FF00D9927729FBE
:10113000B00DE11DF91F639FB00DE11DF91FBD0149
:10114000CF01112408952F923F924F925F926F9298
:101150007F928F929F92AF92BF92CF92DF92EF9247
:10116000FF920F931F93CF93DF93CDB7DEB7CA1BC8
:10117000DB0B0FB6F894DEBF0FBECDBF09942A88F3
:10118000398848885F846E847D848C849B84AA849B
:10119000B984C884DF80EE80FD800C811B81AA8128
:1011A000B981CE0FD11D0FB6F894DEBF0FBECDBFF3
:0411B000ED010895B0
:1011B4005501002057726F6E672054696D696E6720
:1011C40021002057726F6E672074696D696E672104
:1011D40000204D75737465726C6F6573756E67214D
:1011E40000204C6F6573756E672069737420726993
:1011F40063687469672100000000000000000000BB
:00000001FF
