:1000000045C000004BC0000049C0000047C00000D0
:1000100045C0000043C0000041C000003FC00000D8
:100020003DC000003BC0000039C0000037C00000E8
:1000300035C0000033C0000031C000002FC00000F8
:100040002DC000002BC0000029C0000027C0000008
:1000500025C0000023C0000021C000001FC0000018
:100060001DC000001BC0000019C0000017C0000028
:1000700015C0000013C0000011C000000FC0000038
:100080000DC000000BC0000009C0000011241FBEFD
:10009000CFEFD0E1DEBFCDBFF7D029C1B1CFCF9335
:1000A000DF9300D0CDB7DEB79A8389838AE290E0F0
:1000B000FC0120818AE290E0286DFC01208385E923
:1000C00090E0FC01208185E990E02660FC0120831E
:1000D00089819A81292F332780E990E0FC012083D0
:1000E00089E290E02981FC01208300000F900F90AD
:1000F000DF91CF910895CF93DF93CDB7DEB78BE239
:1001000090E0FC0180818078DF91CF910895CF93BA
:10011000DF93CDB7DEB78CE290E0FC018081DF9108
:10012000CF910895CF93DF93CDB7DEB700008BE278
:1001300090E0FC0180818823D4F78CE290E0FC0100
:100140008081DF91CF910895CF93DF930F92CDB748
:10015000DEB7898300008CE290E02981FC012083D6
:1001600000000F90DF91CF910895CF93DF9300D0DF
:1001700000D000D0CDB7DEB79E838D838AE990E0B2
:1001800028E1FC0120838DE990E026E0FC0120833A
:100190008D819E81CC01A0E0B0E0880F991FAA1F3D
:1001A000BB1F880F991FAA1FBB1F880F991FAA1F6B
:1001B000BB1F880F991FAA1FBB1F9C01AD0180E0C8
:1001C00090E0A1EEB0E0BC01CD016FD0DA01C90131
:1001D0000197A109B10989839A83AB83BC83898183
:1001E0009A81AB81BC81892F9A2FAB2FBB2728E93D
:1001F00030E0F901808389E990E02981FC012083C6
:10020000000026960FB6F894DEBF0FBECDBFDF917B
:10021000CF910895CF93DF93CDB7DEB78BE990E010
:10022000FC0180818078DF91CF910895CF93DF9397
:10023000CDB7DEB78CE990E0FC018081DF91CF91F2
:100240000895CF93DF93CDB7DEB700008BE990E040
:10025000FC0180818823D4F78CE990E0FC01808147
:10026000DF91CF910895CF93DF930F92CDB7DEB793
:10027000898300008CE990E02981FC012083000043
:100280000F90DF91CF91089580E895E208DF80E834
:1002900095E26BDF30DF882311F039DFE4DFBADF6E
:1002A0008823C1F3C3DF50DFF5CFA1E21A2EAA1BCA
:1002B000BB1BFD010DC0AA1FBB1FEE1FFF1FA21716
:1002C000B307E407F50720F0A21BB30BE40BF50B13
:1002D000661F771F881F991F1A9469F7609570959C
:1002E000809590959B01AC01BD01CF010895F894D4
:0202F000FFCF3E
:00000001FF
