S00D00004E6F6465302E7372656361
S113000045C000004BC0000049C0000047C00000CC
S113001045C0000043C0000041C000003FC00000D4
S11300203DC000003BC0000039C0000037C00000E4
S113003035C0000033C0000031C000002FC00000F4
S11300402DC000002BC0000029C0000027C0000004
S113005025C0000023C0000021C000001FC0000014
S11300601DC000001BC0000019C0000017C0000024
S113007015C0000013C0000011C000000FC0000034
S11300800DC000000BC0000009C0000011241FBEF9
S1130090CFEFD0E1DEBFCDBF02D081C0B1CF80E8C9
S11300A095E20ED080E895E21ED016D0882311F098
S11300B016D050D048D08823C1F349D012D0F5CF00
S11300C02AB1286D2AB9E5E9F0E020812660208371
S11300D09093900089B908958BB1807808958CB17C
S11300E008958CB908959C0188E180939A0086E074
S11300F080939D00C901A0E0B0E0880F991FAA1F5A
S1130100BB1F880F991FAA1FBB1F9C01AD01220FA3
S1130110331F441F551F220F331F441F551F60E018
S113012070E081EE90E019D0BA01A9014150510963
S113013061097109BB27A72F962F852F80939800FB
S113014040939900089580919B0080780895809150
S11301509C00089580939C000895A1E21A2EAA1B86
S1130160BB1BFD010DC0AA1FBB1FEE1FFF1FA21763
S1130170B307E407F50720F0A21BB30BE40BF50B60
S1130180661F771F881F991F1A9469F760957095E9
S1130190809590959B01AC01BD01CF010895F89421
S10501A0FFCF8B
S9030000FC
