:1000000045C0000053C0000051C000004FC00000B8
:100010004DC000004BC0000049C0000047C00000B8
:1000200045C0000043C0000041C000003FC00000C8
:100030003DC000003BC0000039C0000037C00000D8
:1000400035C0000033C0000031C000002FC00000E8
:100050002DC000002BC0000029C0000027C00000F8
:1000600025C0000023C0000021C000001FC0000008
:100070001DC000001BC0000019C0000017C0000018
:1000800015C0000013C0000011C0000011241FBEE5
:10009000CFEFD0E1DEBFCDBF21E0A0E0B1E001C0F5
:1000A0001D92A330B207E1F76BD0B1C0A9CF807821
:1000B000089580740895869586958695877008952D
:1000C000877020E8829FC001112408958F7790E007
:1000D000089528E0829FC00111248873660F672F5E
:1000E000661F770B71956770862B806C08958F77EC
:1000F000089580E287BB83E88FBD89E08EBD1BBC7D
:100100001ABC08959BBD8ABD089587E886B90895F5
:1001100082E087B9369A3699FECF84B195B10895B9
:1001200080910201843029F48091000190910101B5
:10013000E9CF0895CF93DF9350D0EC01BC0183E069
:10014000C8DF63D0CE01D3DF60D0DF91CF910895B7
:10015000CF93DF93DDDFEC01BC0181E0BADF55D046
:10016000CE01C5DF52D0DF91CF9108958091020179
:10017000813021F0833019F4DDCF0895E9CF08955F
:1001800080E895E232D026D0C0DFB3DF3AD0C82F66
:100190008EDF882389F08C2F8EDF809302018C2FD5
:1001A00088DF882339F08C2F8BDF909301018093B7
:1001B0000001ECCFDBDFEACF8C2F88DF209100013C
:1001C00030910101822B932B9093010180930001C8
:1001D000A7DFDCCF87E886B9089581E087B9369A32
:1001E0003699FECF84B195B108952AB1286D2AB908
:1001F000E5E9F0E02081266020839093900089B9A2
:1002000008955F9BFECF8CB108958CB90895F89442
:02021000FFCF1E
:00000001FF
